:020000040000FA
:0400000022EF3EF0BD
:107C430003430EF66E7C0EF76E000EF86E0900F518
:107C5300CF0CF0000EF86E000104EF3FF0550E81DB
:107C63006E820E016EDE0EE82EFED7012EFCD7814A
:107C73001E820E016EDE0EE82EFED7012EFCD712F9
:107C830000010E036E000E816E000E056E000E04E1
:107C93006E04C001F003C002F0012A53EF3EF0D896
:107CA300900236012E51EF3EF002508110816E1A80
:107CB3000E016EF80EE82EFED7012EFCD700D0047D
:107CC3004A052A05BE6FEF3EF0055009E1090E048F
:107CD3005CD8A06FEF3EF071EF3EF04AEF3EF07FCD
:107CE3000E036E000E076E000E066E06C001F00353
:107CF300C002F0012A80EF3EF0D8900232012E7EBE
:107D0300EF3EF002508114816E1A0E016EF80EE8F8
:107D13002EFED7012EFCD700D0064A072A07BE9CA9
:107D2300EF3EF0075009E1090E065CD8A09CEF3E38
:107D3300F09EEF3EF077EF3EF01200036E000E046C
:107D43006ECCEF3EF0400E046E01EF3FF0790E046F
:107D53006E01EF3FF0240E046E01EF3FF0300E048E
:107D63006E01EF3FF0190E046E01EF3FF0120E04A7
:107D73006E01EF3FF0020E046E01EF3FF0780E0448
:107D83006E01EF3FF0000E046E01EF3FF0100E04A2
:107D93006E01EF3FF00350016E026A0250000AD8F1
:107DA300B4D6EF3EF001EF3FF00150000AD8B4A47F
:107DB300EF3EF0010AD8B4A8EF3EF0030AD8B4AC02
:107DC300EF3EF0010AD8B4B0EF3EF0070AD8B4B4DE
:107DD300EF3EF0010AD8B4B8EF3EF0030AD8B4BCC2
:107DE300EF3EF0010AD8B4C0EF3EF00F0AD8B4C496
:107DF300EF3EF0010AD8B4C8EF3EF001EF3FF004C4
:107E0300507F0812000F0EC16E9280000E956E0017
:107E13000E936E80A010EF3FF012EF3FF024EF3F80
:107E2300F080B017EF3FF019EF3FF012EF3FF00C87
:107E33002A030E0C6420EF3FF022EF3FF024EF3FC4
:107E4300F0010E0C6E84B629EF3FF02BEF3FF03DAF
:107E5300EF3FF084A630EF3FF032EF3FF02BEF3FE0
:107E6300F00C060C50D8A439EF3FF03BEF3FF03D48
:107E7300EF3FF0030E0C6E0C509FEC3EF0836E4F01
:107E8300EF3FF042EC3EF00BEF3FF030EC3EF00BF7
:107E9300EF3FF06AEC3FF00BEF3FF00C500A6E0B34
:107EA3006A0B50000AD8B459EF3FF00BEF3FF00ACA
:107EB30050010AD8B443EF3FF0030AD8B447EF3F69
:107EC300F0010AD8B44BEF3FF00BEF3FF000EF00A7
:107ED300F0180E096E000E816E000E086E000E077C
:107EE3006E07C001F009C002F0012A7BEF3FF0D812
:107EF300900236012E79EF3FF002508110816E0718
:107F0300C001F009C002F0012A8AEF3FF0D89002C5
:107F130032012E88EF3FF002508110816E820E01F4
:107F23006EDE0EE82EFED7012EFCD7074A082A087C
:107F3300BEA5EF3FF0085009E1040E075CD8A0A5E9
:107F4300EF3FF0A7EF3FF072EF3FF07F0E096E00B7
:107F53000E046E000E036E03C001F009C002F001AF
:107F63002AB6EF3FF0D8900232012EB4EF3FF00271
:107F7300508114816E820E016EDE0EE82EFED70153
:107F83002EFCD7034A042A04BED1EF3FF004500964
:107F9300E1040E035CD8A0D1EF3FF0D3EF3FF0AD87
:107FA300EF3FF0FE0E096E000E066E000E056E0525
:107FB300C001F009C002F0012AE2EF3FF0D89002BD
:107FC30036012EE0EF3FF002508114816E820E01E4
:107FD3006EDE0EE82EFED7012EFCD7054A062A06D2
:107FE300BEFDEF3FF0065009E1040E055CD8A0FD8D
:0D7FF300EF3FF0FFEF3FF0D9EF3FF012003D
:020000040020DA
:08000000FFFFFFFFFFFFFFFF00
:020000040030CA
:0E000000000B191EFF0181FF0FC00FE00F4023
:00000001FF
