:020000040000FA
:0400000081EF3FF05D
:107F02000001B8EF3FF001C005F005460546054601
:107F1200C0500518C70B0518C06EC0500318F80BE7
:107F22000318C06EC08E1200076E07C003F003462E
:107F32000346C2500318C30B0318C26EC280C2822A
:107F4200C2B2A6EF3FF0A8EF3FF0A1EF3FF0C3505F
:107F5200C4CF03F0046A03C004F0036A0310056E81
:107F62000450066E05C001F006C002F01200000EB9
:107F7200946E000E956E0D0EC16E000E8B6E000E8D
:107F8200026E020E016E000E046E040E036E84EC8D
:107F92003FF0000E95EC3FF001C00AF002C00BF07A
:107FA2000AC08CFF0B508B6E0B5040098B6E050E76
:107FB200096E0F0E086EF10EE82EFED7082EFCD7C2
:107FC200092EFAD700F0010E95EC3FF001C00AF03D
:107FD20002C00BF00AC08CFF0B5080098B6E050E9D
:107FE200096E0F0E086EF10EE82EFED7082EFCD792
:0E7FF200092EFAD700F0CAEF3FF000EF00F0C2
:020000040020DA
:08000000FFFFFFFFFFFFFFFF00
:020000040030CA
:0E0000000000191EFF8381FF0FC00FE00F40AC
:00000001FF
