:020000040000FA
:04000000A6EF3FF038
:107F40008380839212008390838212000001A9EF44
:107F50003FF00F0EC16E9368000E956E81B4B3EFC3
:107F60003FF0B5EF3FF0B8EF3FF08384B9EF3FF05B
:107F70008394BFEC3FF0AEEF3FF000EF00F081A044
:107F8000C4EF3FF0C6EF3FF0CFEF3FF081B2CBEF51
:107F90003FF0CDEF3FF0CFEF3FF0A3EC3FF081B0EB
:107FA000D4EF3FF0D6EF3FF0DFEF3FF081A2DBEF01
:107FB0003FF0DDEF3FF0DFEF3FF0A0EC3FF081B0AE
:107FC000E4EF3FF0E6EF3FF0EFEF3FF081B2EBEF91
:107FD0003FF0EDEF3FF0EFEF3FF08390839281A011
:107FE000F4EF3FF0F6EF3FF0FFEF3FF081A2FBEF41
:107FF0003FF0FDEF3FF0FFEF3FF0839083921200E0
:020000040020DA
:08000000FFFFFFFFFFFFFFFF00
:020000040030CA
:0E0000000008191EFF8181FF0FC00FE00F40A6
:00000001FF
