:020000040000FA
:04000000A9EF3EF036
:107D52000F6A0E6A000EF86E0001B0EF3EF0000EE0
:107D6200926E9368000E956E81500F0B0D6E8138E6
:107D72000F0B0F0B0C6E0D500C240B6E0BC001F091
:107D8200026A000E046E0A0E036E39EC3FF00150D7
:107D9200096E0BC001F0026A000E046E0A0E036E39
:107DA200E1EC3EF001500A6E09509BEC3FF0806E10
:107DB2000A509BEC3FF0836EB5EF3EF000EF00F00F
:107DC200000E066E02BEEAEF3EF0E8EF3EF0F0EF84
:107DD2003EF0016C021ED8B0022A010E066E04BEED
:107DE200F7EF3EF0F5EF3EF0FBEF3EF0036C041EC2
:107DF200D8B0042A03500410D8B402EF3FF004EFC5
:107E02003FF028EF3FF0010E056E0CEF3FF0D890E7
:107E120003360436052A04AE11EF3FF013EF3FF0AC
:107E220008EF3FF00350015C04500258D8A01CEF49
:107E32003FF01EEF3FF022EF3FF00350015E04508F
:107E4200025AD89004320332052E13EF3FF0065047
:107E5200D8B42EEF3FF030EF3FF034EF3FF0016C3B
:107E6200021ED8B0022A01C001F002C002F01200C4
:107E7200000E066E04BE42EF3FF040EF3FF048EFC7
:107E82003FF0036C041ED8B0042A010E066E02BE37
:107E92004FEF3FF04DEF3FF055EF3FF0016C021E08
:107EA200D8B0022A010E061A000E086E000E076EE6
:107EB20003500410D8B460EF3FF062EF3FF08AEF56
:107EC2003FF0010E056E6AEF3FF0D890033604369C
:107ED200052A04AE6FEF3FF071EF3FF066EF3FF01F
:107EE200D890073608360350015C04500258D8A0D7
:107EF2007DEF3FF07FEF3FF084EF3FF00350015EF4
:107F02000450025A0780D89004320332052E71EFD2
:107F12003FF00650D8B490EF3FF092EF3FF096EF6B
:107F22003FF0076C081ED8B0082A07C001F008C04D
:107F320002F01200036E000E046EC8EF3FF0400E16
:107F4200046EFDEF3FF0790E046EFDEF3FF0240E5C
:107F5200046EFDEF3FF0300E046EFDEF3FF0190EA0
:107F6200046EFDEF3FF0120E046EFDEF3FF0020EC5
:107F7200046EFDEF3FF0780E046EFDEF3FF0000E51
:107F8200046EFDEF3FF0100E046EFDEF3FF0035064
:107F9200016E026A0250000AD8B4D2EF3FF0FDEF40
:107FA2003FF00150000AD8B4A0EF3FF0010AD8B464
:107FB200A4EF3FF0030AD8B4A8EF3FF0010AD8B407
:107FC200ACEF3FF0070AD8B4B0EF3FF0010AD8B4E3
:107FD200B4EF3FF0030AD8B4B8EF3FF0010AD8B4C7
:107FE200BCEF3FF00F0AD8B4C0EF3FF0010AD8B49B
:0E7FF200C4EF3FF0FDEF3FF004507F08120097
:020000040020DA
:08000000FFFFFFFFFFFFFFFF00
:020000040030CA
:0E0000000008191EFF8181FF0FC00FE00F40A6
:00000001FF
