:020000040000FA
:0400000042EF3EF09D
:107C810062000E810EF66E7C0EF76E000EF86E0924
:107C910000F5CF0AF00900F5CF0BF00900F5CF0C84
:107CA100F00E6A0D6A000EF86E00018DEF3EF00ACB
:107CB100C001F00BC002F0000E046E0A0E036EE16B
:107CC100EC3EF001500E6E0AC001F00BC002F00054
:107CD1000E046E0A0E036E39EC3FF001500D6E84F6
:107CE1009084820D509BEC3FF0836E130E096E2D34
:107CF1000EE82EFED7092EFCD700F0848084920E68
:107D0100509BEC3FF0836E130E096E2D0EE82EFE94
:107D1100D7092EFCD700F012000F0EC16E000E9590
:107D21006E969096928480849280A09AEF3EF09C09
:107D3100EF3EF0BBEF3EF0A0EF3EF058EC3EF0809E
:107D4100B0A5EF3EF0A7EF3EF09EEF3EF00A4A0BE2
:107D51002A0BBEB5EF3EF00B5009E1640E0A5CD868
:107D6100A0B5EF3EF0B7EF3EF0BBEF3EF0000E0BDB
:107D71006E000E0A6E80A2C0EF3EF0C2EF3EF0DB55
:107D8100EF3EF0C6EF3EF058EC3EF080B2CBEF3E56
:107D9100F0CDEF3EF0C4EF3EF00A06D8A00B060B83
:107DA100BED7EF3EF0D5EF3EF0DBEF3EF0000E0B1D
:107DB1006E630E0A6E58EC3EF095EF3EF000EF0058
:107DC100F0000E066E02BEEAEF3EF0E8EF3EF0F084
:107DD100EF3EF0016C021ED8B0022A010E066E04BD
:107DE100BEF7EF3EF0F5EF3EF0FBEF3EF0036C0423
:107DF1001ED8B0042A03500410D8B402EF3FF00497
:107E0100EF3FF028EF3FF0010E056E0CEF3FF0D889
:107E11009003360436052A04AE11EF3FF013EF3F0D
:107E2100F008EF3FF00350015C04500258D8A01C49
:107E3100EF3FF01EEF3FF022EF3FF00350015E04F1
:107E410050025AD89004320332052E13EF3FF00648
:107E510050D8B42EEF3FF030EF3FF034EF3FF00158
:107E61006C021ED8B0022A01C001F002C002F01259
:107E710000000E066E04BE42EF3FF040EF3FF048B7
:107E8100EF3FF0036C041ED8B0042A010E066E0207
:107E9100BE4FEF3FF04DEF3FF055EF3FF0016C0269
:107EA1001ED8B0022A010E061A000E086E000E0737
:107EB1006E03500410D8B460EF3FF062EF3FF08AD8
:107EC100EF3FF0010E056E6AEF3FF0D890033604E4
:107ED10036052A04AE6FEF3FF071EF3FF066EF3FDA
:107EE100F0D890073608360350015C04500258D888
:107EF100A07DEF3FF07FEF3FF084EF3FF0035001B3
:107F01005E0450025A0780D89004320332052E7164
:107F1100EF3FF00650D8B490EF3FF092EF3FF0966C
:107F2100EF3FF0076C081ED8B0082A07C001F0081F
:107F3100C002F01200036E000E046EC8EF3FF04065
:107F41000E046EFDEF3FF0790E046EFDEF3FF0245D
:107F51000E046EFDEF3FF0300E046EFDEF3FF019A1
:107F61000E046EFDEF3FF0120E046EFDEF3FF002C6
:107F71000E046EFDEF3FF0780E046EFDEF3FF00052
:107F81000E046EFDEF3FF0100E046EFDEF3FF003A7
:107F910050016E026A0250000AD8B4D2EF3FF0FDE0
:107FA100EF3FF00150000AD8B4A0EF3FF0010AD82A
:107FB100B4A4EF3FF0030AD8B4A8EF3FF0010AD808
:107FC100B4ACEF3FF0070AD8B4B0EF3FF0010AD8E4
:107FD100B4B4EF3FF0030AD8B4B8EF3FF0010AD8C8
:107FE100B4BCEF3FF00F0AD8B4C0EF3FF0010AD89C
:0F7FF100B4C4EF3FF0FDEF3FF004507F081200E3
:020000040020DA
:08000000FFFFFFFFFFFFFFFF00
:020000040030CA
:0E000000000A191EFF8181FF0FC00FE00F40A4
:00000001FF
