:020000040000FA
:0400000050EF3FF08E
:107E9C00400005009C0EF66E7E0EF76E000EF86E1E
:107EAC0000EE08F010EE04F00900F5CFEEFFE550FF
:107EBC00E150FAE1000EF86E000165EF3FF0000EA4
:107ECC00926E000E956E936881CF07F00F0E071619
:107EDC000750016E026A87EC3FF00150806E81CF33
:107EEC0007F0073A0F0E07160F0E07160750016E14
:107EFC00026A87EC3FF00150836E6AEF3FF000EFAF
:107F0C0000F0C5EF3FF0000E066E3F0E056EFBEF66
:107F1C003FF0000E066E060E056EFBEF3FF0000EF6
:107F2C00066E5B0E056EFBEF3FF0000E066E4F0EFD
:107F3C00056EFBEF3FF0000E066E660E056EFBEF56
:107F4C003FF0000E066E6D0E056EFBEF3FF0000E5F
:107F5C00066E7D0E056EFBEF3FF0000E066E070EF3
:107F6C00056EFBEF3FF0000E066E7F0E056EFBEF0D
:107F7C003FF0000E066E6F0E056EFBEF3FF001C07A
:107F8C0003F002C004F00450000AD8B4D0EF3FF064
:107F9C00FBEF3FF00350000AD8B489EF3FF0010A21
:107FAC00D8B48FEF3FF0030AD8B495EF3FF0010A35
:107FBC00D8B49BEF3FF0070AD8B4A1EF3FF0010A09
:107FCC00D8B4A7EF3FF0030AD8B4ADEF3FF0010AE5
:107FDC00D8B4B3EF3FF00F0AD8B4B9EF3FF0010AB1
:107FEC00D8B4BFEF3FF0FBEF3FF005C001F006C087
:047FFC0002F012007D
:020000040020DA
:08000000FFFFFFFFFFFFFFFF00
:020000040030CA
:0E0000000008191EFF8181FF0FC00FE00F40A6
:00000001FF
