:020000040000FA
:04000000CAEF3FF014
:107F9400026A016A0001CFEF3FF00F0EC16E000EBE
:107FA400926E938081A0D9EF3FF0DBEF3FF0FAEFC0
:107FB4003FF0030E046E8A0E036E560EE82EFED7B3
:107FC400032EFCD7042EFAD7014A022A02BEF4EF8C
:107FD4003FF0025009E1080E015CD8A0F4EF3FF035
:107FE400F6EF3FF0FAEF3FF0000E026E000E016E66
:0C7FF40001C080FFD4EF3FF000EF00F070
:020000040020DA
:08000000FFFFFFFFFFFFFFFF00
:020000040030CA
:0E000000000C191EFF8181FF0FC00FE00F40A2
:00000001FF
