:020000040000FA
:04000000AFEF3DF031
:107B5D00035D0EF66E7B0EF76E000EF86E0900F5E6
:107B6D00CF0EF0000EF86E000103EF3EF0F00E8127
:107B7D006E820E016EDE0EE82EFED7012EFCD78131
:107B8D001E820E016EDE0EE82EFED7012EFCD712E0
:107B9D000080A0D4EF3DF0D6EF3DF0E8EF3DF08052
:107BAD00B0DBEF3DF0DDEF3DF0D6EF3DF00E2A03FB
:107BBD000E0E64E4EF3DF0E6EF3DF0E8EF3DF00131
:107BCD000E0E6E120084B6EEEF3DF0F0EF3DF002BA
:107BDD00EF3EF084A6F5EF3DF0F7EF3DF0F0EF3D11
:107BED00F00E060E50D8A4FEEF3DF000EF3EF00271
:107BFD00EF3EF0030E0E6E12000F0EC16E000E93CF
:107C0D006E000E956E9280CFEC3DF0E9EC3DF00EDE
:107C1D00503BEC3EF0836E20EF3EF0A0EC3EF00AC0
:107C2D00EF3EF00BEC3FF00AEF3EF0BDEC3DF00AFD
:107C3D00EF3EF00E500C6E0D6A0D50000AD8B42AAE
:107C4D00EF3EF00AEF3EF00C50010AD8B414EF3EAF
:107C5D00F0030AD8B418EF3EF0010AD8B41CEF3E79
:107C6D00F00AEF3EF000EF00F0036E000E046E68B8
:107C7D00EF3EF0400E046E9DEF3EF0790E046E9DCA
:107C8D00EF3EF0240E046E9DEF3EF0300E046E9D1F
:107C9D00EF3EF0190E046E9DEF3EF0120E046E9D38
:107CAD00EF3EF0020E046E9DEF3EF0780E046E9DD9
:107CBD00EF3EF0000E046E9DEF3EF0100E046E9D33
:107CCD00EF3EF00350016E026A0250000AD8B47202
:107CDD00EF3EF09DEF3EF00150000AD8B440EF3E6C
:107CED00F0010AD8B444EF3EF0030AD8B448EF3E91
:107CFD00F0010AD8B44CEF3EF0070AD8B450EF3E6D
:107D0D00F0010AD8B454EF3EF0030AD8B458EF3E50
:107D1D00F0010AD8B45CEF3EF00F0AD8B460EF3E24
:107D2D00F0010AD8B464EF3EF09DEF3EF004507FB1
:107D3D00081200010E036E000E816E000E056E001E
:107D4D000E046E04C001F003C002F0012AB1EF3E33
:107D5D00F0D8900236012EAFEF3EF0025081108127
:107D6D006E1A0E016EF80EE82EFED7012EFCD7000E
:107D7D00D0044A052A05BECDEF3EF0055009E109B4
:107D8D000E045CD8A0CDEF3EF0CFEF3EF0A8EF3E55
:107D9D00F0FE0E036E820E016EDE0EE82EFED70192
:107DAD002EFCD7000E076E000E066E06C001F00306
:107DBD00C002F0012AE5EF3EF0D8900236012EE325
:107DCD00EF3EF002508114816E410E016EEE0EE811
:107DDD002EFED7012EFCD700D0064A072A07BE017A
:107DED00EF3FF0075009E1090E065CD8A001EF3F07
:107DFD00F003EF3FF0DCEF3EF0820E016EDE0EE899
:107E0D002EFED7012EFCD71200180E0B6E000E8120
:107E1D006E410E016EEE0EE82EFED7012EFCD70040
:107E2D00D0000E086E000E076E07C001F00BC002E9
:107E3D00F0012A24EF3FF0D8900236012E22EF3FB9
:107E4D00F002508110816E07C001F00BC002F001ED
:107E5D002A33EF3FF0D8900232012E31EF3FF0027E
:107E6D00508110816E410E016EEE0EE82EFED7018F
:107E7D002EFCD700D0074A082A08BE4FEF3FF00866
:107E8D005009E1090E075CD8A04FEF3FF051EF3FCD
:107E9D00F01BEF3FF07F0E0B6E410E016EEE0EE804
:107EAD002EFED7012EFCD700D0000E046E000E035F
:107EBD006E03C001F00BC002F0012A68EF3FF0D84D
:107ECD00900232012E66EF3FF002508114816E4117
:107EDD000E016EEE0EE82EFED7012EFCD700D0035C
:107EED004A042A04BE84EF3FF0045009E1090E0351
:107EFD005CD8A084EF3FF086EF3FF05FEF3FF018C6
:107F0D000E0B6E410E016EEE0EE82EFED7012EFC0D
:107F1D00D700D0000E0A6E000E096E09C001F00BDD
:107F2D00C002F0012A9DEF3FF0D8900236012E9B42
:107F3D00EF3FF002508110816E09C001F00BC002BD
:107F4D00F0012AACEF3FF0D8900232012EAAEF3F9C
:107F5D00F002508110816E410E016EEE0EE82EFE84
:107F6D00D7012EFCD700D0094A0A2A0ABEC8EF3F16
:107F7D00F00A5009E1090E095CD8A0C8EF3FF0CA1C
:107F8D00EF3FF094EF3FF0FE0E0B6E410E016EEEE3
:107F9D000EE82EFED7012EFCD700D0000E066E0087
:107FAD000E056E05C001F00BC002F0012AE1EF3F96
:107FBD00F0D8900236012EDFEF3FF0025081148190
:107FCD006E410E016EEE0EE82EFED7012EFCD7008F
:107FDD00D0054A062A06BEFDEF3FF0065009E1091D
:107FED000E055CD8A0FDEF3FF0FFEF3FF0D8EF3F5F
:037FFD00F012007F
:020000040020DA
:08000000FFFFFFFFFFFFFFFF00
:020000040030CA
:0E000000000B191EFF0181FF0FC00FE00F4023
:00000001FF
