:020000040000FA
:0400000054EF3FF08A
:107EA800026A016A000EF86E00015BEF3FF0070EF0
:107EB800936E000E956E000E926E8BEF3FF03F0EA4
:107EC800806EC1EF3FF0060E806EC1EF3FF05B0E93
:107ED800806EC1EF3FF04F0E806EC1EF3FF0660E2F
:107EE800806EC1EF3FF06D0E806EC1EF3FF07D0EEA
:107EF800806EC1EF3FF0070E806EC1EF3FF07F0E3E
:107F0800806EC1EF3FF06F0E806EC1EF3FF001C091
:107F180003F002C004F00450000AD8B496EF3FF012
:107F2800C1EF3FF00350000AD8B463EF3FF0010AF5
:107F3800D8B467EF3FF0030AD8B46BEF3FF0010AFB
:107F4800D8B46FEF3FF0070AD8B473EF3FF0010AD7
:107F5800D8B477EF3FF0030AD8B47BEF3FF0010ABB
:107F6800D8B47FEF3FF00F0AD8B483EF3FF0010A8F
:107F7800D8B487EF3FF0C1EF3FF0010E0124016E46
:107F8800000E0220026E0A0E01180210D8A4CFEFCC
:107F98003FF0D1EF3FF0D5EF3FF0000E026E000E3C
:107FA800016E81A0DAEF3FF0DCEF3FF0DEEF3FF04B
:107FB8000F0E836E81A2E3EF3FF0E5EF3FF0E7EFAE
:107FC8003FF0F00E836E81A4ECEF3FF0EEEF3FF050
:107FD800F0EF3FF03F0E836E020E046E040E036E48
:107FE800BA0EE82EFED7032EFCD7042EFAD700D0FF
:087FF8008BEF3FF000EF00F0F9
:020000040020DA
:08000000FFFFFFFFFFFFFFFF00
:020000040030CA
:0E0000000008191EFF8181FF0FC00FE00F40A6
:00000001FF
