:020000040000FA
:04000000FFEF3DF0E1
:107BFE00086A076A000EF86E0001C9EF3EF0550ED6
:107C0E00816E811E820E016EDE0EE82EFED7012ED3
:107C1E00FCD7811E820E016EDE0EE82EFED7012EDF
:107C2E00FCD71200010E036E000E816E000E046E64
:107C3E0004C001F003C002F0012A28EF3EF0D890F4
:107C4E000236012E26EF3EF002508110816E1A0E82
:107C5E00016EF80EE82EFED7012EFCD700D0042AB6
:107C6E00070E04643DEF3EF03FEF3EF01FEF3EF097
:107C7E007F0E036E000E046E04C001F003C002F00E
:107C8E00012A4CEF3EF0D8900232012E4AEF3EF020
:107C9E0002508114816E1A0E016EF80EE82EFED778
:107CAE00012EFCD700D0042A070E046461EF3EF0CB
:107CBE0063EF3EF043EF3EF01200036E000E046ED3
:107CCE0091EF3EF0400E046EC6EF3EF0790E046E5C
:107CDE00C6EF3EF0240E046EC6EF3EF0300E046E7C
:107CEE00C6EF3EF0190E046EC6EF3EF0120E046E95
:107CFE00C6EF3EF0020E046EC6EF3EF0780E046E36
:107D0E00C6EF3EF0000E046EC6EF3EF0100E046E8F
:107D1E00C6EF3EF00350016E026A0250000AD8B45C
:107D2E009BEF3EF0C6EF3EF00150000AD8B469EF6B
:107D3E003EF0010AD8B46DEF3EF0030AD8B471EFED
:107D4E003EF0010AD8B475EF3EF0070AD8B479EFC9
:107D5E003EF0010AD8B47DEF3EF0030AD8B481EFAD
:107D6E003EF0010AD8B485EF3EF00F0AD8B489EF81
:107D7E003EF0010AD8B48DEF3EF0C6EF3EF004504F
:107D8E007F0812000F0EC16E010E926E040E966EDB
:107D9E00000E936E000E956E80A0D8EF3EF0DAEFD7
:107DAE003EF0F5EF3EF080B0DFEF3EF0E1EF3EF05B
:107DBE00DAEF3EF0074A082A08BEEFEF3EF0085011
:107DCE0009E1040E075CD8A0EFEF3EF0F1EF3EF0B4
:107DDE00F5EF3EF0000E086E010E076E84B6FAEF58
:107DEE003EF0FCEF3EF017EF3FF084A601EF3FF0C0
:107DFE0003EF3FF0FCEF3EF00706D8A0080608BEE2
:107E0E0013EF3FF0085006E10704D8B011EF3FF032
:107E1E0013EF3FF017EF3FF0000E086E030E076EE4
:107E2E00075064EC3EF0836E29EF3FF019EC3EF004
:107E3E00D3EF3EF045EC3FF0D3EF3EF006EC3EF0D4
:107E4E00D3EF3EF007C005F008C006F00650000A5A
:107E5E00D8B434EF3FF0D3EF3EF00550010AD8B45A
:107E6E001DEF3FF0030AD8B421EF3FF0010AD8B45A
:107E7E0025EF3FF0D3EF3EF000EF00F0300E036E33
:107E8E00000E816E000E046E04C001F003C002F0FD
:107E9E00012A54EF3FF0D8900236012E52EF3FF0F8
:107EAE0002508110816E04C001F003C002F0012A5D
:107EBE0063EF3FF0D8900232012E61EF3FF0025097
:107ECE008110816E1A0E016EF80EE82EFED7012E6D
:107EDE00FCD700D0042A070E046478EF3FF07AEF47
:107EEE003FF04BEF3FF07F0E036E000E046E04C0AA
:107EFE0001F003C002F0012A87EF3FF0D890023262
:107F0E00012E85EF3FF002508114816E1A0E016E24
:107F1E00F80EE82EFED7012EFCD700D0042A070E4D
:107F2E0004649CEF3FF09EEF3FF07EEF3FF0300E8B
:107F3E00036E000E046E04C001F003C002F0012AAD
:107F4E00ABEF3FF0D8900236012EA9EF3FF0025072
:107F5E008110816E04C001F003C002F0012ABAEF55
:107F6E003FF0D8900232012EB8EF3FF00250811050
:107F7E00816E1A0E016EF80EE82EFED7012EFCD77A
:107F8E0000D0042A070E0464CFEF3FF0D1EF3FF08C
:107F9E00A2EF3FF0FE0E036E000E046E04C001F061
:107FAE0003C002F0012ADEEF3FF0D8900236012E18
:107FBE00DCEF3FF002508114816E1A0E016EF80E46
:107FCE00E82EFED7012EFCD700D0042A070E04643B
:107FDE00F3EF3FF0F5EF3FF0D5EF3FF0000E816E7F
:107FEE001A0E016EF80EE82EFED7012EFCD700D029
:027FFE0012006F
:020000040020DA
:08000000FFFFFFFFFFFFFFFF00
:020000040030CA
:0E000000000B191EFF0181FF0FC00FE00F4023
:00000001FF
